S01900007465726D5F70726F6A6563745F76312E302E7372656399
S113000045C000001DC5000060C50000A9C5000072
S1130010D4C5000059C0000057C0000055C00000FE
S113002053C0000051C000004FC000004DC000008C
S11300304BC0000049C0000047C0000045C000009C
S113004043C0000041C000003FC000003DC00000AC
S11300503BC0000039C0000037C0000035C00000BC
S113006033C0000031C000002FC000002DC00000CC
S11300702BC0000029C00000B3C4000025C000004C
S113008023C0000021C000001FC0000011241FBEB7
S1130090CFEFD0E1DEBFCDBF11E0A0E0B1E0E2EFF1
S11300A0F1E100E00BBF02C007900D92A831B10747
S11300B0D9F722E0A8E1B1E001C01D92AF33B20745
S11300C0E1F7A8D50C94F7089BCFCF93DF9300D02A
S11300D000D01F92CDB7DEB7FE01319695E0DF0167
S11300E01D929A95E9F790B1927021E030E0A90150
S11300F002C0440F551F9A95E2F7A1E6B0E09C9127
S1130100492B4C9390B19270A90102C0440F551F22
S11301109A95E2F7E2E6F0E09081492B40834FEFB5
S113012051EE94E0415050409040E1F700C000008F
S113013090B19270A90102C0440F551F9A95E2F73D
S1130140409550959081492340834FEF50EE90E0C5
S1130150415050409040E1F700C0000090B19270CF
S1130160A90102C0440F551F9A95E2F79081492BCB
S11301704083E5E0EA95F1F7000090B1927002C087
S1130180220F331F9A95E2F7209530959C912923ED
S11301902C93F0EDFA95F1F720B190B1927030E024
S11301A002C0359527959A95E2F720FD90C0AFE3FC
S11301B0B1E01197F1F700C0000020B190B1927046
S11301C030E002C0359527959A95E2F720FF81C06B
S11301D0EFE3F1E03197F1F700C0000060E03EC0CA
S11301E020B190B1927030E002C0359527959A9570
S11301F0E2F720FFF5CFF0EAFA95F1F720B190B1DC
S1130200927030E002C0359527959A95E2F720FF69
S11302100CC0E7E0F0E0E41BF10921E030E002C0AB
S1130220220F331FEA95E2F7522B20B190B192705E
S113023030E002C0359527959A95E2F720FDF5CF79
S11302404F5F02C050E040E0483050F2E1E0F0E09F
S1130250EC0FFD1FE60FF11D50836F5F653090F3C7
S113026090B1927021E030E0A90102C0440F551F03
S11302709A95E2F7E1E6F0E09081492B408390B152
S1130280927002C0220F331F9A95E2F7E2E6F0E083
S11302909081292B2083AFE9BFE01197F1F700C0CB
S11302A0000069812A8130E0260F311D9B81290FCE
S11302B0311D4C81240F311D4D8150E02417350729
S11302C051F4882359F0813041F09FEF07C09FEF2C
S11302D005C09FEF03C09FEF01C0962F892F0F9099
S11302E00F900F900F900F90DF91CF910895CF93BF
S11302F0DF93EB01EADE8F3F09F08883DF91CF9132
S11303000895E5E6F0E090819460908390819D7F6C
S1130310908390819160908396EF9A95F1F78BBBCF
S113032086EF8A95F1F780818E7F80830895E5E6D4
S1130330F0E090819B7F908390819D7F908390815A
S11303409160908396EF9A95F1F78BBB86EF8A952F
S1130350F1F780818E7F8083089520E030E007C02C
S1130360E6E6FEE03197F1F700002F5F3F4F482F9C
S113037050E024173507A4F30895CF93C82F81E0E4
S1130380ECDF8C2FBEDFCF910895CF93DF93EC0188
S113039002C0F3DF219688818111FBCFDF91CF91D9
S11303A0089590E4899F600D1124862F8068BFCF43
S11303B0089581E0BCDF82E0D0CF08958FEF8ABB3F
S11303C0E4E6F0E080818F6080830895F7DF88E3BE
S11303D0AEDF84E0C2DF88E3AADF84E0BEDF88E327
S11303E0A6DF84E0BADF8EE0A2DF82E0B6DF86E03B
S11303F09EDF82E0B2DFDDCF08958AEF90E09BBDFF
S11304008ABD089584EF91E09BBD8ABD089587B3AA
S1130410806287BB88B3806288BB82E88FBD8BE132
S11304208EBD87E893E197BD86BD87E791E09BBDCC
S11304308ABDE8CF0895E199FECF9FBB8EBB6DBB0B
S1130440F8948CB384608CBB8CB382608CBB78943E
S11304500895E199FECF9FBB8EBB8CB381608CBBAA
S11304608DB3089580E190E0F4DF90E09093BD01B6
S11304708093BC01089584B384BB1092C501089590
S113048085B3816085BB81E08093C501089515BA69
S11304901092C501089590919B0095FFFCCF809325
S11304A09C0008950F931F93CF93DF93EC0103C037
S11304B08991F1DFB8018B0101501109672BC1F754
S11304C0DF91CF911F910F91089588E980939A004D
S11304D0109298008FE08093990078940895AC016D
S11304E020E030E080E007C0FA01E20FF31F9081C2
S11304F0890F2F5F3F4F26173707B4F30895EF9204
S1130500FF921F93CF93DF93CDB7DEB7C456D109C3
S11305100FB6F894DEBF0FBECDBFD9019FEF99830C
S113052091E09A838B836C834D8380E090E015E0A7
S11305300DC0FD01E80FF91F3081E1E0F0E0EC0FA0
S1130540FD1FE10FF11D308301961F5F642F70E0E2
S11305508617970774F3E12EF12CB701CE010196AB
S1130560BEDFE1E0F0E0EC0FFD1FEE0DFF1D808328
S11305701F5F612F70E0CE01019694DFCC59DF4FED
S11305800FB6F894DEBF0FBECDBFDF91CF911F91A0
S1130590FF90EF90089584B3806C84BB1092C101E6
S11305A008958091C10181110FC085B38F7B85BBF4
S11305B02FEF8FE794E0215080409040E1F700C096
S11305C0000085B3806485BB81E08093C1010895F8
S11305D08091C101813079F485B38F7B85BB2FEF86
S11305E08FE794E0215080409040E1F700C0000084
S11305F085B3806485BB1092C10108951092BE0139
S11306001092C0011092430188E2E8E1F1E0DF01B9
S11306101D928A95E9F78EE1809342018AE58093E1
S1130620C601D6DF8FE089BF8FEF80936A000895FB
S11306306EEB71E080E05BDE8091BE019FEF980F6E
S1130640913388F41F928F9380E091E09F938F936E
S113065088E191E09F938F93EFD20F900F900F90CA
S11306600F900F900F9060E080E09BDE88E191E0B6
S11306708CDE2FEF8FEF9CE2215080409040E1F719
S113068000C00000089560EC71E081E030DE8091EC
S1130690C0019FEF980F943688F41F928F9388E0DF
S11306A091E09F938F9388E191E09F938F93C4D2BD
S11306B00F900F900F900F900F900F9060E081E0DB
S11306C070DE88E191E061DE2FEF8FEF9CE2215034
S11306D080409040E1F700C0000008959091BE0171
S11306E080914201891730F48091C501811107C0BE
S11306F0C7CE08958091C501813009F4C8CE08950C
S11307009091C0018091C601981710F44ACF0895C2
S11307105FCF0895EF92FF920F931F93CF93DF93D0
S11307207C018B01C0E0D0E013C0F701EC0FFD1F8A
S11307306081F801808191817EDEF80160817181A0
S11307406F5F7F4F7183608380E190E074DE219658
S1130750F70101900020E9F73197EE19FF09CE1750
S1130760DF0718F3DF91CF911F910F91FF90EF9066
S11307700895AF92BF92CF92DF92EF92FF920F93C0
S11307801F93CF93DF935C018B016A0140E050E03B
S11307900FC07A018FEFE81AF80AE601C40FD51FDB
S11307A0C501801B910B55DE888301501109A701F7
S11307B01016110674F3F601E40FF51F1082DF9191
S11307C0CF911F910F91FF90EF90DF90CF90BF904A
S11307D0AF9008951F93CF93DF93EC0188818F3FEF
S11307E009F0A6C08981813009F0A5C06150710962
S11307F0FE01E60FF71F1081CE0171DE18139EC0B3
S11308008A818231C1F018F4813139F09AC0833180
S113081011F1843109F45FC094C08B81823009F0F6
S113082093C010924301C5DD03DF2DDF57DF68DF7E
S113083080E090E094C0109243018D81813021F4D6
S1130840DCDD80E090E08BC0823009F080C0DADD2E
S113085080E090E084C08B81823009F07BC01092EC
S11308604301A7DD4C8150E0BE016B5F7F4F87ECF5
S113087091E0D9D1EC81F0E0E953FE4F10826CEBAA
S113088071E087EC91E046DFE7ECF1E001900020B5
S1130890E9F73197BF01675C714048EA51E0809104
S11308A0BC019091BD0165DF60E080E07ADD88EAFB
S11308B091E06BDDE8EAF1E001900020E9F731977F
S11308C0AF01485A514028EA31E062E083E117DE83
S11308D080E090E044C08B818130E1F46ADD60E027
S11308E080E05FDD8FE091E050DD81E080934301A3
S11308F08599FECF829BFECF80E190E0AADD90E057
S11309009093BD018093BC0154DD1092430180E0BB
S113091090E025C0823009F580E190E09ADD90E016
S11309209093BD018093BC0144DD80E090E017C04A
S11309308FEF9FEF14C08EEF9FEF11C08DEF9FEFED
S11309400EC080E090E00BC080E090E008C080E042
S113095090E005C080E090E002C080E090E0DF918C
S1130960CF911F91089587B38FEF87BB11BA84E6A7
S11309708093C401109241011092C3011092C201EC
S1130980A4DD789408951F93CF93DF938091BF01E2
S1130990813011F51091C401C12FD0E0AE0164E49F
S11309A071E08BED91E03FD1109341011092BF01B2
S11309B084E6E4E4F1E0DF01982F1D929A95E9F7CB
S11309C08093C40110924001BE018BED91E002DFDF
S11309D09093C3018093C201DF91CF911F91089539
S11309E01F920F920FB60F9211240BB60F928F9392
S11309F09F93EF93FF9380914001E82FF0E0909153
S1130A009C00EC5BFE4F90838F5F809340018530A8
S1130A1028F0909148019A5F9093C4019091C40189
S1130A20891303C081E08093BF01FF91EF919F91EF
S1130A308F910F900BBE0F900FBE0F901F901895C3
S1130A401F920F920FB60F9211240BB60F922F9391
S1130A503F934F935F936F937F938F939F93AF9342
S1130A60BF93EF93FF93809143018823D9F048EA21
S1130A7051E06CE070E08091BC019091BD0179DEA1
S1130A8060E081E08EDC88EA91E07FDC8091BC014B
S1130A909091BD018D31910528F00C979093BD0183
S1130AA08093BC01FF91EF91BF91AF919F918F9182
S1130AB07F916F915F914F913F912F910F900BBE5A
S1130AC00F900FBE0F901F9018951F920F920FB6A4
S1130AD00F9211240BB60F922F933F934F935F9372
S1130AE06F937F938F939F93AF93BF93EF93FF93F2
S1130AF080914301882309F148EA51E06CE070E0F9
S1130B008091BC019091BD0134DE60E081E049DC5C
S1130B1088EA91E03ADC80E190E09BDC90E00C977D
S1130B202091BC013091BD012817390730F4245FAE
S1130B303F4F3093BD012093BC01FF91EF91BF91D2
S1130B40AF919F918F917F916F915F914F913F9161
S1130B502F910F900BBE0F900FBE0F901F90189502
S1130B601F920F920FB60F9211240BB60F922F9370
S1130B703F934F935F936F937F938F939F93AF9321
S1130B80BF93EF93FF938091C501882311F07FDC1D
S1130B9001C076DCFF91EF91BF91AF919F918F914E
S1130BA07F916F915F914F913F912F910F900BBE69
S1130BB00F900FBE0F901F9018951F920F920FB6B3
S1130BC00F9211240BB60F922F933F934F935F9381
S1130BD06F937F938F939F93AF93BF93EF93FF9301
S1130BE08091C101882311F0F3DC01C0DADCFF91AC
S1130BF0EF91BF91AF919F918F917F916F915F9191
S1130C004F913F912F910F900BBE0F900FBE0F90FD
S1130C101F901895F3DCBFDCD9DBF9DB2CDCA3DEF9
S1130C2021DCB1DEFECFFB01DC0102C001900D929C
S1130C3041505040D8F708950F931F93CF93DF93FB
S1130C40CDB7DEB72E970FB6F894DEBF0FBECDBF7B
S1130C500D891E8986E08C831A8309838FEF9FE7B1
S1130C609E838D83AE01475E5F4F6F89788DCE0181
S1130C70019610D0EF81F885E00FF11F10822E96B7
S1130C800FB6F894DEBF0FBECDBFDF91CF911F9199
S1130C900F9108952F923F924F925F926F927F929D
S1130CA08F929F92AF92BF92CF92DF92EF92FF9278
S1130CB00F931F93CF93DF93CDB7DEB72B970FB668
S1130CC0F894DEBF0FBECDBF6C017B018A01FC012D
S1130CD017821682838181FFBFC1CE0101963C0138
S1130CE0F6019381F70193FD859193FF81917F0133
S1130CF0882309F4ADC1853239F493FD859193FFBE
S1130D0081917F01853221F4B60190E0D6D1E8CFFC
S1130D10912C212C312CFFE1F315D8F08B3279F092
S1130D2038F4803279F08332A1F4232D20611DC080
S1130D308D3261F0803369F4232D216016C0832D38
S1130D408260382EE32DE4603E2E2AC0F32DF86035
S1130D501DC037FC2DC020ED280F2A3040F08E3204
S1130D60B9F436FC75C1232D2064322E19C036FE29
S1130D7006C08AE0989E200D1124922E11C0EAE04C
S1130D802E9E200D1124222EF32DF0623F2E08C03A
S1130D908C3621F4832D8068382E02C0883641F4C5
S1130DA0F70193FD859193FF81917F018111B3CF69
S1130DB0982F9F7D9554933028F40C5F1F4F9FE329
S1130DC099830DC0833631F0833771F0833509F090
S1130DD055C020C0F801808189830E5F1F4F88248D
S1130DE08394912C530112C02801F2E04F0E511C40
S1130DF0F801A080B18036FE03C0692D70E002C006
S1130E006FEF7FEFC5014ED14C018201F32DFF77C7
S1130E103F2E15C0280122E0420E511CF801A0808B
S1130E20B18036FE03C0692D70E002C06FEF7FEF22
S1130E30C5012DD14C01F32DF0683F2E820133FC06
S1130E4019C0822D90E088169906A0F4B60180E2BC
S1130E5090E033D12A94F5CFF50137FC859137FE24
S1130E6081915F01B60190E028D121102A9421E0FC
S1130E70821A91088114910479F7E1C0843611F043
S1130E80893639F5F80137FE07C0608171818281A6
S1130E9093810C5F1F4F08C060817181072E000C85
S1130EA0880B990B0E5F1F4FF32DFF763F2E97FF94
S1130EB009C090958095709561957F4F8F4F9F4F96
S1130EC0F0683F2E2AE030E0A30133D1882E861843
S1130ED044C0853731F4232D2F7EB22E2AE030E032
S1130EE025C0932D997FB92E8F36C1F018F488351B
S1130EF079F0AEC0803719F0883721F0A9C0E92F06
S1130F00E061BE2EB4FE0DC0FB2DF460BF2E09C0FF
S1130F1034FE0AC0292F2660B22E06C028E030E035
S1130F2005C020E130E002C020E132E0F801B7FE64
S1130F3007C060817181828193810C5F1F4F06C05D
S1130F406081718180E090E00E5F1F4FA301F1D0BA
S1130F50882E8618FB2DFF773F2E36FE0DC0232DDD
S1130F602E7FA22E891458F434FE0BC032FC09C023
S1130F70832D8E7EA82E05C0B82CA32C03C0B82CBC
S1130F8001C0B92CA4FE0FC0FE01E80DF11D808143
S1130F90803321F49A2D997EA92E09C0A2FE06C0A1
S1130FA0B394B39404C08A2D867809F0B394A3FC57
S1130FB010C0A0FE06C0B21480F4280C922C9B181A
S1130FC00DC0B21458F4B60180E290E076D0B39428
S1130FD0F8CFB21418F42B1802C0982C212CA4FEBC
S1130FE00FC0B60180E390E068D0A2FE16C0A1FC59
S1130FF003C088E790E002C088E590E0B6010CC029
S11310008A2D867851F0A1FE02C08BE201C080E2F5
S1131010A7FC8DE2B60190E050D0891430F4B601FB
S113102080E390E04AD09A94F8CF8A94F301E80DD3
S1131030F11D8081B60190E040D08110F6CF2220CE
S113104009F44ECEB60180E290E037D02A94F7CF6F
S1131050F6018681978102C08FEF9FEF2B960FB622
S1131060F894DEBF0FBECDBFDF91CF911F910F91DA
S1131070FF90EF90DF90CF90BF90AF909F908F90B4
S11310807F906F905F904F903F902F900895FC0158
S11310900590615070400110D8F7809590958E0F9F
S11310A09F1F0895FC016150704001900110D8F712
S11310B0809590958E0F9F1F08950F931F93CF9344
S11310C0DF93FB01238121FD03C08FEF9FEF2CC031
S11310D022FF16C046815781248135814217530768
S11310E044F4A081B1819D012F5F3F4F3183208360
S11310F08C93268137812F5F3F4F3783268314C01B
S11311008B01EC01FB010084F185E02D0995892B0D
S1131110E1F6D80116968D919C9117970196179632
S11311209C938E931697CE01DF91CF911F910F91CF
S11311300895FA01AA27283051F1203181F1E89469
S11311406F936E7F6E5F7F4F8F4F9F4FAF4FB1E0B6
S11311503ED0B4E03CD0670F781F891F9A1FA11DB1
S1131160680F791F8A1F911DA11D6A0F711D811DB2
S1131170911DA11D20D009F468943F912AE0269F77
S113118011243019305D3193DEF6CF010895462FD6
S11311904770405D4193B3E00FD0C9F7F6CF462FB7
S11311A04F70405D4A3318F0495D31FD4052419320
S11311B002D0A9F7EACFB4E0A695979587957795DD
S11311C06795BA95C9F700976105710508959B0164
S11311D0AC010A2E06945795479537952795BA95ED
S11311E0C9F7620F731F841F951FA01D0895F894FB
S10511F0FFCF2B
S11311F254656D703A25640048756D3A2564005251
S10B120265636F726473000060
S9030000FC
